:0600000028C0FECFFDCF79
:10000600FCCFFBCFFACFF9CFF8CFF7CFF6CFF5CFAE
:10001600F4CFF3CFF2CFF1CFF0CFEFCFEECF42C098
:10002600ECCFEBCFEACFE9CFE8CFE7CFE6CF10278B
:10003600E80364000A00010000100001100001003E
:10004600000000000400050046000000F894EE27BA
:10005600EFBBE5BF8DE0A2E0BB27ED938A95E9F7FC
:1000660080E092E0A0E0B1E0ED930197E9F7EAE4E1
:10007600F0E085919591009761F0A591B591059075
:100086001590BF01F00105900D920197E1F7FB0174
:10009600F0CFE0E0EEBBEFEFEDBFE2E0EEBFC0E891
:1000A600D1E039C0EA93FA93EFB7EA93F7D4109107
:1000B600C0000091C600E12FEC7169F4E62D63944F
:1000C600F0E0E256FE4F0083E72DF82D31967E2EA6
:1000D6008F2E09F4F09A09911991E991EFBFF991E0
:1000E600E9911895AA93E881E066E0937C008DE09B
:1000F6008A95F1F7E0917A00E064E0937A00E09166
:100106007A00E071E1F3E0917A00E061E0937A0031
:10011600E09179001EC22497E0E8E0936100E0E0F8
:10012600E0936100EFE3E4B9E5B9EEE3E7B9ECE3A8
:10013600E8B9ECEFEAB9EBB9E0E0E093C000E8E932
:10014600E093C100E6E0E093C200E0E0E093C50082
:10015600E9E1E093C400E0E0E0937E00E0E6E093AE
:100166007C00E2E8E0937A00E0E0E0937B0035D2A1
:100176007894E0EFEA93A0E8B1E07FD20E2F00304A
:1001860011F0AFE001C0ADEF3CD0A0EDB7E01BD25F
:10019600A0E0B0E0B0D1A9E8B1E027D459D370D43B
:1001A600DAD1E0E0F0E066E972E4CED3E0938901CB
:1001B600F0938A0160938B0170938C01CCD1EAD0C5
:1001C600E0E0E0938D01E0938E01E0938F01E093F0
:1001D6009001A6E087DFE63918F4E2E03E2A02C085
:1001E600EDEF3E22A7E07EDFE73918F0E1E03E2A98
:1001F60002C0EEEF3E22F0D0A4E6B0E0E4D1C8CFD4
:10020600FFCFAA934BD4AA81A03014F45D9801C005
:100216005D9AAA81A0301CF4E0E0EA1BEA83A4D12F
:100226000ED41E2FA1D110D40E2FE12FF0E030975F
:1002360031F4A1D1A3D15B985F985E9A4FC0E130AB
:10024600A0E0FA0729F49DD15B9A5F9A5E9A46C0B0
:10025600E230A0E0FA0731F48ED15A9A5C985B98A6
:100266005F9A3BC0E330A0E0FA0729F484D186D137
:100276005B9A5F9A32C0E430A0E0FA0711F481D1AC
:100286002AC0E530A0E0FA0719F42898299A21C077
:10029600E630A0E0FA0729F42898299A6FD15B98EE
:1002A6001BC0E730A0E0FA0739F465D15A985C9A8A
:1002B6005B9A5F9A5E9A12C0E830A0E0FA0721F4D2
:1002C6005AD15CD15B9808C0E930A0E0FA0739F44E
:1002D60052D15A985C985B9A5F985E98459AE02F3F
:1002E600F0E0309731F452D154D144982B982A9AA1
:1002F6004FC0E130A0E0FA0729F44ED1449A2B9A78
:100306002A9A46C0E230A0E0FA0731F43FD1429A79
:10031600439844982B9A3BC0E330A0E0FA0729F4AF
:1003260035D137D1449A2B9A32C0E430A0E0FA078F
:1003360011F432D12AC0E530A0E0FA0719F42C985E
:100346002D9A21C0E630A0E0FA0729F42C982D9AC0
:1003560020D144981BC0E730A0E0FA0739F416D143
:100366004298439A449A2B9A2A9A12C0E830A0E0FF
:10037600FA0721F40BD10DD1449808C0E930A0E06A
:10038600FA0731F403D142984398449A2B982A9855
:100396008CD38BC07AD382D3AA81BB818C819D8179
:1003A600E0E0F0E060E271E481D21BD28F01043616
:1003B600E0E01E0724F40D39EFEF1E0744F4D801E0
:1003C600EAE0F0E03CD3AE2F1CDF6FD392C0A02F43
:1003D60018DF45986AD38DC06A975CD3E09189018E
:1003E600F0918A0160918B0170918C01DAD0EC87D3
:1003F600E0919201ED87E0919301EE87E0919401FF
:10040600EF87E0918D01F0918E0160918F017091DF
:100416009001C7D0E88BE0919201E98BE0919301BE
:10042600EA8BE0919401EB8BFE017496308210E02A
:1004360000E0093028F4C0D0EC911E270F5FF9CFF9
:10044600FE0175961083419AA4E87BD0A3EB79D080
:10045600A3EE77D0A5E775D000E00A3028F4ACD03B
:10046600AC916FD00F5FF9CF1CD3A0960895BA93C5
:10047600AA931A93B2D0E03011F4E0E015C0E981F6
:10048600FA81309771F0A5E5EED010E0A981BA8126
:10049600ED91A983BA83AE2FE6D01F5F1830B0F373
:1004A60002C0ACECE0D0E1E0188123960895BA933F
:1004B600AA93F2D2AC81BD81DADFE03011F4E0E03C
:1004C60017C0AEEBD0D010E025E931E03F932F9373
:1004D6002F5F3F4FC3D0AF91BF91EC931F5F193091
:1004E600A8F3E5E9F1E0FA93EA93A9E035D182D2DF
:1004F600DAD226960895BA93AA93A881B981B7DF6E
:10050600E03019F4E1EFF8ED1AC0A4E4ACD0A6E2AD
:10051600B2E059D0A881B981CADFE03019F4E1EF21
:10052600F8ED0DC05AD0F0919601E0E0DF01E091C0
:100536009501F0E0EA2BFB2BA5E0B0E068D222960D
:100546000895AA93E091C000E072E1F3E881E09398
:10055600C60021960895A0918901B0918A018091E3
:100566008B0190918C010895AA81B0E0A7FDBFEFA1
:10057600EAE0F0E008952898299808955A985C983A
:100586000895289A29985A985C9A08952C982D9837
:1005960008954298439808952C9A2D984298439A24
:1005A6000895E0939101F093920160939301709303
:1005B6009401E09191010895E02FF0E0DE011C9690
:1005C600AE0FBF1F0895109639F088EE93E001979D
:1005D600F1F7A8951197C9F70895EE274098389A2C
:1005E60080EE91E00197F1F7389883E18A95F1F76B
:1005F600309B089585E68A95F1F7309BE1E086E821
:1006060091E00197F1F70895389A83E08A95F1F71A
:1006160038988FE08A95F1F7889430990894E79591
:100626008BE68A95F1F70895E894389A83E08A95DF
:10063600F1F770FD389881E18A95F1F7309903C09A
:1006460070FF03C0089570FF089584E68A95F1F758
:10065600389887E08A95F1F76894089568E0D4DFC2
:100666006A95E9F708957A2F68E0EE27DDDF26F42C
:1006760077956A95D9F7E39508954F935F9311247B
:100686004427012C1124A9DFEE2301F1AF93A881A1
:10069600EADFAF9151E0501598F4B6DFE7FD08C0E8
:1006A600B3DFE7FD06C03FD0892319F4152E01C03C
:1006B600ABDF39D0892370E009F071E0B5DF1EC0E9
:1006C600A3DFE7FF0BC0A0DFE7FF05C0E42F5F91C4
:1006D6004F9121960895689437D0EFCF95DFE7FFC5
:1006E60001C003C0501531F0152EE8942DD07727A0
:1006F6009BDF04C0689428D071E096DF539551348F
:1007060054F282DFEE1FEE1FE1701896EC931897F5
:1007160043951120D9F259E0EC911996EC9318976C
:100726005A95D1F7AECFE52FEA956E2FE695E69569
:10073600E695FF27EA0FFB1F808191E0677019F0AD
:10074600990F6A95FCCF0895EEDF1EF090958923E8
:1007560001C0892B80830895EE27AA2389F08A2F6A
:1007660068E1A881B98198E0FD917F2F7E27779572
:1007760008F4E627E795F6959A95B9F78A9599F7D5
:1007860022960895552342F4503811F4E0FF04C030
:100796003196691F791F6BF050E8572711F45F9364
:1007A60073C05F3F31F0660F000C57956795752F44
:1007B60008955F9300200AF073C06CC050E8192EAC
:1007C6001522880F991F9527550F879550E8072EF4
:1007D6000522660F771F7527550F6795089568944C
:1007E60001C0E8945F93F2DF703818F07F3F08F499
:1007F6004BC056E1571BAAF4519558300EF45930A8
:1008060030F0EFEFFFEF6FEF7FE777F91AC077274A
:100816005523B9F0EE0FFF1F661F771F5A95D1F7C4
:1008260010C07727583028F0EF2FF62F672F585033
:10083600F9CF552331F076956795F795E7955A9553
:10084600D1F700200AF4C9D05F910895689401C0D9
:10085600E894309760407040B1F0002426F077238A
:1008660012F40094BAD0172E7EE1112032F07A9558
:10087600EE0FFF1F661F111CF9CFEF2FF62F612D0C
:100886005F938ADF5F910895EE27FF276627772714
:100896005F910895EFEFFFEF6FE77FEF5F910895A8
:1008A600EFEFFFEF6FE77FE75F9108955F9386DFD6
:1008B600703851F3903841F301240894791F23F4DA
:1008C6001CF300203AF3ECCF0F921F932F933F9324
:1008D6004F93112722279927689FA0018F9F302DBC
:1008E600410D591F6B9F300D411D591F8E9F27D0FB
:1008F600BF9F25D06A9F23D0BE9F1DD0AF9F1BD020
:10090600AE9F110D291F391F491F591FE32FF42FC1
:10091600652F522F4F913F912F911F910F90662374
:100926002AF0550FEE1FFF1F661F02C073954BF28C
:1009360029DF5F910895100D211D391F02C0200D7A
:10094600311D491F591F08955F9338DF703821F410
:1009560011200AF49FCFA4CF903809F495CF012433
:100966000894970B1BF4D4F30020F3CF792F1F9331
:100976002F933F934F931124112722273327442780
:10098600552790E2AE17BF078607410730F0AE1B2A
:10099600BF0B860B410B089401C08894551F221F7C
:1009A600331F111CAA1FBB1F881F441F9A9551F79E
:1009B600F901612D4F913F912F911F91662332F0DE
:1009C600550FEE1FFF1F661F7A9543F2DBDE5F9120
:1009D6000895F195E195F0400895F095609570952C
:1009E600E195FF4F6F4F7F4F08956F2F660F660B90
:1009F600762F0895EE23E1E009F0EE270895FA9F99
:100A0600F02DEB9FF00DEA9FE02DF10D08952AD011
:100A1600F6DF0EF4DEDF08950024112490E1AA0F1C
:100A2600BB1F001C111C0E1A1F0A18F40E0E1F1EE7
:100A360001C0A1609A9599F7FD01D001089512D0E1
:100A4600EBDF0EF4C6DF0895E894B7FF04C0A09567
:100A5600B09511966894F7FDBCDFDEDFFD010EF45C
:100A6600B8DF0895E894F7FF02C0B3DF6894B7FFD4
:100A760006C0A095B095119600F8039400FA089563
:100A8600ED93FD936D937C9308959A938A93BA930D
:100A9600AA9308955A934A933A932A931A930A93D8
:100AA60008955D814C813B812A81198108810895D1
:00000001FF
